:020000040800F2
:1000000050B1002079020008E96800086556000830
:100010008D6800087D0C000879A800080000000029
:10002000000000000000000000000000A1710008B6
:100030002B0F000800000000ED6A00085D72000848
:10004000930200089302000893020008930200083C
:10005000930200089302000893020008930200082C
:10006000930200089302000893020008930200081C
:10007000930200089302000893020008930200080C
:1000800093020008930200089302000893020008FC
:1000900093020008930200089302000893020008EC
:1000A00093020008930200089302000893020008DC
:1000B00093020008930200089302000893020008CC
:1000C00093020008930200089302000893020008BC
:1000D0009302000899760008930200089302000832
:1000E000930200089302000893020008930200089C
:1000F000930200089302000893020008930200088C
:10010000930200089302000893020008930200087B
:100110009302000893020008157400089302000877
:10012000E90D0008930200089302000893020008FA
:10013000930200089302000893020008930200084B
:10014000930200089302000893020008930200083B
:10015000930200089302000893020008930200082B
:10016000930200089302000893020008930200081B
:1001700093020008696900089302000893020008CE
:10018000930200089302000800F002F800F064F8FF
:100190000AA090E8000C82448344AAF10107DA45E2
:1001A00001D100F059F8AFF2090EBAE80F0013F0D0
:1001B000010F18BFFB1A43F00103184758A50100AF
:1001C00078A501000A444FF0000C10F8013B13F031
:1001D000070408BF10F8014B1D1108BF10F8015BA0
:1001E000641E05D010F8016B641E01F8016BF9D193
:1001F00013F0080F1EBF10F8014BAD1C0C1B09D1EA
:100200006D1E58BF01F801CBFAD505E014F8016B5B
:1002100001F8016B6D1EF9D59142D6D370470000ED
:100220000023002400250026103A28BF78C1FBD8FF
:10023000520728BF30C148BF0B607047782900F0D3
:100240009980732900F0F882002070471FB514F0E0
:1002500099FC1FBD10B510BD00F080FB1146FFF7E3
:10026000F5FF14F09BF900F09EFB03B4FFF7F2FFDB
:1002700003BC13F076F9000009488047094800479D
:10028000FEE7FEE7FEE7FEE7FEE7FEE7FEE7FEE746
:10029000FEE7FEE704480549054A064B70470000A3
:1002A000257300088901000850AB002050B10020E0
:1002B00050AD002050AD0020704700000FB404493D
:1002C00010B503AA029800F0BBFA10BC5DF814FB4D
:1002D0002800002070B5044685690068C10601D574
:1002E000302600E02026C00707D070BDD4E90121E8
:1002F00030469047206A401C20626D1EF6D570BDC6
:1003000070B5044685690078C00707D170BDD4E98F
:10031000012120209047206A401C20626D1EF6D5E6
:1003200070BD70B50C460546012A05D028788006B8
:1003300000D5EA69002302E0012305E05B1C93423B
:1003400002D2E05C0028F9D1A869E618C01AA861B9
:10035000286A184428622846FFF7BCFF04E0D5E964
:10036000012114F8010B9047B442F8D32846FFF757
:10037000C7FF70BD70B504460D4621461068AFF347
:1003800000802188090502D50F4A7A4402E00E4A0E
:100390007A440E32002104F1240305E000F00F0638
:1003A0000009965D5E54491C0028F7D1207800238F
:1003B000000704D5702D02D009B102231132204666
:1003C000BDE8704000F0CDB946A301002DE9F05F13
:1003D000894604464FF0000ADFF824B1FB44C0F818
:1003E00020A02046E168884700287DD0252806D037
:1003F000D4E901219047206A401C2062F1E70025E2
:100400005F462046E16888472028064607DB312EF4
:1004100005D2B81910F8200C08B10543F1E7A80778
:1004200001D525F00405C4F81CA00027C4F818A0C5
:100430002A2E09D0304613F08DF838B304EB870824
:10044000303EC8F8186019E059F8041B204604EB48
:1004500087029161E1688847012F064618D1E0695B
:10046000002820DA25F020051DE0D8F8180000EB60
:10047000800006EB40003038C8F818002046E168DC
:100480008847064613F066F80028EED1012F0AD0FF
:100490002E2E08D12046E16888477F1C0646022F91
:1004A00045F02005C4DBA069002803DA404245F08E
:1004B0000105A061E80701D025F01005A6B1A6F15D
:1004C0004100192802D8203645F400654A463146D5
:1004D000204625604D46FFF7B1FE60B1012807D0E8
:1004E000ED1D25F0070000E007E000F1080978E7BE
:1004F00005F1040975E730467AE7206ABDE8F09F08
:100500001CA3010040EA0103024630B59B0710D14D
:100510004FF0013400E008C208C91D1B9D4315EAD5
:10052000C41FF8D013F0FF0102F8011B0DD01B0A05
:10053000F8E711F8013B002B02F8013B05D011F858
:10054000013B002B02F8013BF3D130BD10B5431C39
:1005500002E010F8011B71B18107FAD14FF00132AE
:1005600002C88C1A8C4314EAC211F9D0C01A0A06C8
:1005700003D0C01E10BDC01A10BD0A0401D0801ED9
:1005800010BD0902FCD0401E10BD032A40F230808D
:1005900010F0030C00F0158011F8013BBCF1020FC4
:1005A000624498BF11F801CB00F8013B38BF11F845
:1005B000013BA2F1040298BF00F801CB38BF00F85C
:1005C000013B11F0030300F06780083AC0F0088097
:1005D00051F8043B083A51F804CBA0E80810F5E7BD
:1005E000121D5CBF51F8043B40F8043BAFF30080A0
:1005F000D20724BF11F8013B11F801CB48BF11F815
:10060000012B24BF00F8013B00F801CB48BF00F8E4
:10061000012B7047431A28BF9A427FF6B6AF032AD0
:100620001044114440F2268010F0030F1EBF11F851
:10063000013D521E00F8013D10F0030F7FF4F6AFAC
:1006400011F0030300F02181083AC0F00B8051F84B
:10065000043D083A51F804CD40F8043D40F804CD7B
:10066000FFF7F3BF121D5CBF51F8043D40F8043D95
:10067000AFF30080D20724BF11F8013D11F801CD7E
:1006800048BF11F8012C24BF00F8013D00F801CD4E
:1006900048BF00F8012C704710B5203AC0F00B801D
:1006A000B1E81850203AA0E81850B1E81850A0E876
:1006B0001850BFF4F5AF5FEA027C24BFB1E81850D0
:1006C000A0E8185044BF18C918C0BDE810405FEA40
:1006D000827C24BF51F8043B40F8043B08BF7047BC
:1006E000D20728BF31F8023B48BF11F8012B28BFC1
:1006F00020F8023B48BF00F8012B704702F0FF03CF
:1007000043EA032242EA024200F0EBB84FF0000253
:1007100000B5134694469646203922BFA0E80C50F7
:10072000A0E80C50B1F12001BFF4F7AF090728BFD2
:10073000A0E80C5048BF0CC05DF804EB890028BF4E
:1007400040F8042B08BF704748BF20F8022B11F077
:10075000804F18BF00F8012B7047704770477047F3
:1007600070472DE9F0470D4699469246044600F140
:1007700024080168880604D5E06921F01001216091
:1007800000E00120A84201DD471B00E00027A1692D
:100790007A1902EB0900081AA0612078C00602D479
:1007A0002046FFF797FD002608E0D4E901211AF85A
:1007B00006009047206A401C761C20624E45F4DB00
:1007C0002078C0060AD52046FFF784FD06E0D4E96C
:1007D000012130209047206A401C2062381EA7F17A
:1007E0000107F4DC07E0D4E9012118F8050090477F
:1007F000206A401C2062281EA5F10105F3DC20467A
:10080000FFF77EFD2078000602D50220BDE8F087C4
:100810000120FBE710B5436913B1AFF3008001E09D
:10082000FFF77FFD012010BD127800F124010A704E
:1008300000224A700122EDE711684FF0FF32E9E72C
:10084000074B70B50D467B4400F071F8044628460E
:1008500000F080F810B14FF0FF3070BD204670BD41
:10086000693B0100431A28BF9A427FF615AF104436
:1008700010F0030F11441EBF11F8013D521E00F885
:10088000013D10F0030F7FF4F6AF103AC0F00A807C
:1008900010B531E91850103A20E91850BFF4F9AFFB
:1008A000BDE81040530724BF31E9081020E90810C3
:1008B00044BF51F8043D40F8043D12F0030F08BF57
:1008C0007047D20728BF31F8023D48BF11F8012C0C
:1008D00028BF20F8023D48BF00F8012C70474FF0B8
:1008E00000020429C0F0128010F0030C3FF410AF96
:1008F000CCF1040CBCF1020F18BF00F8012BA8BF0B
:1009000020F8022BA1EB0C01FFF702BF5FEAC17CCC
:1009100024BF00F8012B00F8012B48BF00F8012B81
:100920007047000001694A1C02610878704700B5F1
:100930008FB0CDE901310021059105497944CDE918
:10094000031011466846FFF741FD0FB000BD0000DF
:10095000E5FFFFFF007B00F080007047754600F068
:100960002BF8AE4605006946534620F00700854641
:1009700018B020B5FFF78EFCBDE820404FF0000610
:100980004FF000074FF000084FF0000B21F0070177
:10099000AC46ACE8C009ACE8C009ACE8C009ACE8BA
:1009A000C0098D46704710B50446AFF3008020465D
:1009B000BDE81040FFF759BC00487047ECAA002082
:1009C000002800DC4042704710B50C480078400613
:1009D00012D40B4C206841070ED5020609484FF48B
:1009E000006103D4BDE8104001F06BBC01F067FC6E
:1009F000206820F00400206010BD00001C000020D2
:100A000014000020000402400549086840F004007A
:100A1000044B00221A8020F080000860704700001C
:100A2000140000202C000020F0B5044680688B499B
:100A300089B051F82050606800287DD0052804D086
:100A400006287AD0122879D1AEE0E86900284FD084
:100A500095E80E008DE80F0004F110010FC904F0B5
:100A6000C1F9002655F8260003F012FBA169E869D8
:100A70000A1A216901446069304402F0CDFCA16981
:100A8000E8690A1A21690144E069801B02F0C4FC8C
:100A9000E169E8690A1A616901442069304402F099
:100AA0005BFDE169E8690A1A61690144A069801B7C
:100AB00002F052FD761C022ED4DBA86803F0E8FA9F
:100AC000E069E9696669431A20694218521E314497
:100AD000801C02F0ABFDE169E869A2690B1A61694B
:100AE0000144101A401C921E02F0A0FDEE6913E0B2
:100AF0005FF0000655F8260003F0CAFAE069831B90
:100B0000A069821B606981192069304402F0E6FC0B
:100B1000761C022EEEDB0226D5E90301CDE90001A9
:100B20006169E06908444310A069891C821B20693F
:100B3000304402F03DFC02E089E012E08AE0D5E9B1
:100B40000501CDE90001E36960690121184401EB69
:100B50006001A0699B1E821B2069304402F028FCC2
:100B600078E0206802F088F8049020680BF026FAFC
:100B700040B1A06808B1002008E00498006F28B1D7
:100B8000012003E00498406F00B10220049901EBBA
:100B90008000C56E04A802F091F800231A4628468A
:100BA000216802F05DFA55E0206802F065F80490D3
:100BB000866EEEB3B0F95C70A168D1B3032942D060
:100BC0005FF0000100EB8101406D0C6C03F06AFAEC
:100BD000204603F05DFA05A802F078FDBDF8141078
:100BE000A88B0144ADF81410BDF81810081AADF820
:100BF0001800BDF81600801CADF81600BDF81A00EC
:100C0000801EADF81A0004985E30B0F90220B0F9E9
:100C1000001005A803F09CF904A802F04FF8022088
:100C200003F080FA304602F027F83A4605A901E0C1
:100C30000BE006E0079002F0E9FA07A802F03EF8A0
:100C400008E00121BEE70221BCE704A8F6E720681E
:100C50000AF096FE09B00020F0BD000060700108A7
:100C6000044A0349116004494A6A486210467047C1
:100C7000A8010020C0050020CC050020FEE70000F0
:100C80002DE9FF470446006810B10BF097F968B1F1
:100C90000022314850F8221060680A2841D007DC51
:100CA000F0B306280DD0072854D106E00122F0E762
:100CB00012280AD019284DD137E020460CF0A6F8AA
:100CC00048E020460DF020FA44E0206801F0D4FF0F
:100CD0000290B0F9548090F85650476C466B02A8C9
:100CE00001F0ECFF206800F039F8814668460AF010
:100CF00007FBBDF8001009EB05000844ADF8000043
:100D0000246A304603F0CEF9022003F00BFA38468D
:100D100003F0BEF942466946204602F077FA19E030
:100D200007E020460DF038FC14E0886904B0BDE807
:100D3000F08720680AF024FE206801F09DFF0390F0
:100D4000B0F90610B0F90220891A491CC16703A83E
:100D500001F0B4FF0020E9E77070010838B501F038
:100D60008BFF0090C46F684601F0A8FF204638BD95
:100D7000044A034911600449CA69C86110467047B2
:100D800034020020FC0500200006002000B589B0D8
:100D900024216846FFF7BAFC192001900348006837
:100DA000806841686846884709B000BDFC0500209E
:100DB0001CB50AF0C1FA0346002000900190044AD5
:100DC0000121044802F068F8034948601CBD000096
:100DD000B1320108904B01088800002001480068EA
:100DE000704700008002002010B50549054800F05A
:100DF0000DF80548016841F00201016010BD0000D6
:100E0000208000101064024014000020074A904225
:100E100001D2074801E005481038064A8B0001EA74
:100E2000020101D5C16070478160704710640240C3
:100E3000006002407D0F7D0FF8B50546006801F0A7
:100E40001BFF0090448ED0F88860684601F036FFA2
:100E500006B1012604F0010428680BF0AFF80EB1CA
:100E6000002006E00CB1012003E008B1022000E000
:100E700003201B4951F82010686858B302280CD091
:100E8000052802D0122828D103E028460BF0EAFFFB
:100E900023E028460DF091FE1FE06A69E8694FF0F3
:100EA000FF33801AA0F1080203EB6204421CAB6915
:100EB000001B4510A3EB6206C86903F0E9F806E0E1
:100EC0003219311B284602F0A7FA641E6D1C002C53
:100ED000F6DA02E028680AF053FD0020F8BD0000B1
:100EE000D0700108044A0349116004490A6B086381
:100EF00010467047840200203C0600204006002077
:100F000038B50D46002401F0B7FE0090C06B2946AD
:100F100001F004FF0546684601F0D0FE1DB12846E9
:100F200001F0AAFE0446204638BD704711B54FF4C3
:100F30007A7402E0204600F006F8BDF800104A1E60
:100F40000092F7D218BD01B582B0002001900421B3
:100F500010E0009100BF00BF00BF00BF00BFBDF8A0
:100F60000000401E0004000C0090F3D1BDF8040006
:100F7000401C0190BDF80400BDF808209042E8D361
:100F80000EBD0000064900200860091D0860091D0B
:100F90000860091D08600249024814310860704762
:100FA000003C0140FFFF7F000149086070470000DE
:100FB0000C3C024070B506460025002905D00129E9
:100FC00027D0022928D04FF4407500F0B7F809283F
:100FD0001ED1134C206820F4407020602068284304
:100FE0002060206820F0F8002060206846F00201B0
:100FF00008432060206840F48030206000F09EF8B4
:10100000216821F002012160216821F0F8012160AE
:1010100070BD4FF48075D8E74FF40075D5E7000038
:10102000103C024009200D490A68D20301D5012075
:1010300070470A68D20601D5062070470A68D205B3
:1010400001D5022070470A6812F0EF0F01D0072087
:10105000704709688907FBD5082070470C3C02409F
:1010600010B5094988420DD802212820FFF7A2FFB8
:1010700002213020FFF79EFF02213820FFF79AFF60
:10108000002010BD012010BD00000A082DE9F0412C
:1010900005460E4617460024DFF83C8015E056F85A
:1010A0002410286800F01AF8092802D00120BDE8B1
:1010B000F081286856F824100068884201D0022088
:1010C000F5E72868001D2860641CBC4202D228682D
:1010D0004045E4D90020EAE7FBFF7F0870B50546EC
:1010E0000E4600F02BF8092813D10A4C206820F492
:1010F00040702060206840F400702060206840F05C
:10110000010020602E6000F019F8216821F0010133
:10111000216070BD103C024005480068002805DAD7
:10112000034804490C38016003490160704700001E
:10113000103C024023016745AB89EFCD08B509207B
:101140000090FFF76FFF009002E0FFF76BFF009049
:101150009DF800000128F8D09DF8000008BD0000AF
:101160002DE9F041044694B0006800F0B7F908B1E9
:10117000D94D01E0D84D2C35606815281ED00CDC07
:101180000B281FD004DC00287ED005287DD12EE15D
:101190000E287BD01228F9D141E1162806D0172855
:1011A00008D0182808D01C28F0D109E0E86914B04C
:1011B000BDE8F081286AFAE7686AF8E7A86AF6E706
:1011C0006869F4E720680B901C200C90206801F0FF
:1011D00053FD0390016D0BA88847064603A801F054
:1011E0006DFD022E0EDB95E807008DE80700D4E9BF
:1011F00004023346A16903F0C3FD20698719A06981
:10120000801B2BE0286802F043FF2169E8690A1877
:10121000521E606902F000F9A269E869111A491CBE
:10122000606902F0F9F8676920697F1C394602F0AD
:1012300035F93946A06902F031F9686802F028FFF3
:1012400020693946401C02F029F9A0693946401E40
:1012500002F024F92769A069BF1C801E8046286817
:1012600002F016FF42463946606902F0D5F8686818
:1012700002F00EFF60694246401C394602F0CCF88D
:10128000686A02280FDD02E015E1AFE000E1A8681E
:1012900002F0FEFE61696A6A881C8B1801465B1EBB
:1012A0004246384627E0296AB14226DD6069022EAF
:1012B000074600F1020801DB374401E007F10207AD
:1012C000206901DB304401E000F1020022693B4665
:1012D0000A44A2F10102414602F0A8F9022E02DB03
:1012E000A069821B01E0A269921EA069E9693B46E0
:1012F000401A401C414602F099F9022E02DB606957
:10130000064401E06669B61CE76928687F1E02F0A2
:10131000BFFE3A463146206902F01EF93A46314690
:10132000A06902F019F9E7696868BF1E02F0B0FE13
:1013300020693A46401C314602F00EF9A0693A464F
:10134000401E314602F008F9E869022802DC286AEA
:10135000022823DDA86A022802DDE1690F1A01E0F4
:10136000E769BF1EA86802F093FEE969022909DD5A
:1013700020693B46421800F1020C521E314660467D
:1013800002F054F9286A022808DDA269E8693B46A0
:10139000101A401C921E314602F048F9286802F0EB
:1013A00077FED4E90620216902F036F8686802F079
:1013B0006FFEA2692169E069521E491C401E02F0BD
:1013C0002BF8A86A022811DD2669A169E469B61C18
:1013D000271AA1F102087F1CA41EA86802F058FE7B
:1013E000234642463946304602F020F972E0208A10
:1013F00006B2ADF81460A08A01B2ADF81610208BC9
:1014000002B2ADF81820A08B03B2ADF81A30D5E9BE
:101410000304CDE90004304601F0CAFF5AE0208AF7
:10142000298B0844ADF81400A08AADF81600208B73
:10143000298B401AADF81800A08BADF81A0020686F
:1014400001F01AFC0390006FF0B1022002F06AFE76
:10145000039991F87C00C0F3C00001EB8000006CA0
:1014600002F016FE0398406B02F01CFE0398006F1A
:1014700001F002FC03990A90B1F95A2005A901F084
:10148000C5FE0AA801F01AFC03A801F017FC21E030
:10149000208AADF81400A08AADF81600208BADF8B4
:1014A0001800A08BADF81A00A86802F0F1FD05A89D
:1014B00002F0E0F80EE0206801F0DEFB039030F867
:1014C0005A1F41F00C01018003A801F0F7FB2068CE
:1014D0000AF056FA00206AE65403002038B50024CA
:1014E00050B101F0C9FB009090F87C00000700D5D6
:1014F0000124684601F0E2FB204638BD30B50446C1
:101500008BB0006801F0B8FB009090F87C10246A62
:10151000006FC1F3C00508B101F0AEFB0690E068B2
:10152000029020690390A088401EADF81000E08969
:10153000ADF812002089401CADF81400608AADF8A7
:101540001600BDF80800401CADF80800BDF80A0000
:10155000401CADF80A00BDF80C00401EADF80C00B0
:101560000098406B02F09EFD009808AA02A9B0F90D
:101570005A30069803F066F8009800EB8500806BFF
:1015800004F0DCFE009800EB8500006C04F00EFF18
:1015900008AB02AA04A9069809F0DCFA684601F033
:1015A0008DFB069810B106A801F088FB0BB0002057
:1015B00030BD0000074A0649054B1160064A083B4A
:1015C000D16958601B68C2E90630084670470000C0
:1015D000480300207C0600208006002038B50D4618
:1015E000040009D001F048FB00900566684601F050
:1015F00065FB204609F0E1FF38BD2DE9F34F85B0CA
:1016000000270C46B846059801F036FB0090C06DE7
:101610000121856805982A68904782462A68032137
:101620000598904704902A680221059890470390F6
:101630002A68002105989047064600980AF044FB66
:10164000834600980AF047FB8146009890F83210D4
:10165000890601D5B0F9588000F036F805460098A3
:10166000C06E10B109F0F2FE074625806780A4F82D
:1016700004A0049AABEB020006EB0802401E2A44C9
:1016800020813A44E280039BA9EB0302521E62814F
:10169000A4F80CA020827019E681401E6082684682
:1016A00001F00CFBB4F90C000190B4F910000290A9
:1016B00002AA01A9059800F039F80198A0810298C2
:1016C000208207B0BDE8F08F10B50146002091F8E8
:1016D0003220920607D5B1F95400002803D1486B97
:1016E00002F040F8801C10BD70B58AB00C4605466B
:1016F00001F0C2FA0990C06D866809A801F0DEFA0F
:10170000009534B1012C06D0022C0BD0032C04D14F
:101710000AE0182000E016200190716868468847AA
:101720000AB070BD1520F7E71720F5E72DE9FC4753
:1017300090468946044601F09FFA0090C16D056805
:1017400068468E6801F0BAFA326800212046904758
:101750000646204609F004FE2F1404462DB227E069
:1017600001F08AFA0190B0F90010B0F90420B0F944
:101770000230491B521BDB1BB34212D190F82800E8
:10178000000607D5D8F8000088420ADB491EC8F8D1
:10179000001006E0D9F80000904202DC521CC9F8A3
:1017A000002001A801F08AFA204609F005FE04464F
:1017B000002CD5D1BDE8FC878000A0F1C0400029F5
:1017C00004D0016841F00101016070470168024ADC
:1017D0001140016070470000FEFF0F0010B5D0E916
:1017E00001121143D0E903231A4311434269114303
:1017F00082691143C2691143026A1143426A11436B
:10180000826A1143C26A1143026B1143026892005B
:10181000A2F1C04211608168082907D101688900DE
:10182000A1F1C0410A6842F040020A60416BD1E96F
:10183000002342EA03128B688C891B0243EA0443AB
:101840001A430B8A42EA03520B7D896942EA03621A
:101850000A430168491C8900A1F1C0410A60C16ABC
:10186000B1F5804F08D000686FF070418000A0F1A2
:10187000C040C0F8041110BD816BD1E9002342EAD9
:1018800003128B680C8A1B0243EA04531A430B7D34
:10189000896942EA036200680A438000A0F1C040FF
:1018A000C0F8042110BD00002DE9F05F00240022E3
:1018B0006AA16B4812F012FA6A4D68710026DFF8CF
:1018C000A881002847D1012268A16C4812F036FA9D
:1018D0006871B8BB694FF868A86103F0CAFE88BB9D
:1018E000DFF89CB14FF400694FF4805A5D4B4A46D3
:1018F0001C336449614812F0E7FA687110BB28791B
:10190000A8B15146584600F0DAFC7121482005F094
:10191000A2FEF221682005F09EFE2E71E869594969
:10192000820808EBC42003F09EFE58B90BE070213A
:10193000682005F090FE5146584600F0C0FC01209A
:101940002871EBE707E0641CA4B2D7E902018842E2
:10195000CCD13720287072B6D8F804404A4D002107
:10196000284605F060FD284605F06AFD00220121A9
:10197000284605F03BFEAD030021284605F053FD47
:10198000284605F05DFD00220121284605F02EFEC7
:101990003E4D0021284605F046FD284605F050FD45
:1019A00000220121284605F021FE394D002128465C
:1019B00005F039FD284605F043FD002201212846A7
:1019C00005F014FE334F384605F0BAFE40F22555B7
:1019D00000222946384605F053FF0021384605F01D
:1019E000A3FE2D4F384605F0ABFE002229463846AF
:1019F00005F046FF0021384605F096FE05F02EF969
:101A0000002005F055F9FFF7BDFA4FF0E020066120
:101A100005F054F90021381405F0CEF9002005F046
:101A200013FA72B6432004F060FF2A2004F05DFF31
:101A30004D2004F05AFF4C2004F057FF72B6D8F83E
:101A4000000080F3098886F31488D8F8000080F33A
:101A50000888A0470020BDE8F09F0000323A00004F
:101A6000D00700203400002000000208323A555010
:101A7000444154452E42494E00000000000A002017
:101A8000000C0240280C002000000140000800402B
:101A90000010004000100140004800402DE9F043D4
:101AA0000446C56887B090468946002002F0F8FADF
:101AB000064625B1287910B146F0020001E026F073
:101AC000020002F0EDFA2069012558B1D4E90212B2
:101AD0008DE82600039563882288046841464846BD
:101AE000A0471EE0124F134B214638681B68427C0A
:101AF000E068984730B9E088012801D0002001E073
:101B00003868806BA288E388A1680095CDE904104D
:101B1000CDE902320195638822884146484604F0A7
:101B20005DF807B03046BDE8F04302F0B9BA0000F6
:101B300048010020400100201CB50024019401ACA4
:101B4000009400F0E7F81CBD2DE9FF4F83B08146FB
:101B500006988A46A0EB0A08109E00200090A2EB8F
:101B600009043568934654EA080018D02046FEF769
:101B700027FF07464046FEF723FF87420BDA204641
:101B8000444680464846D14682465846DDF818B05D
:101B9000069001200090002C07DD204606E007B0EB
:101BA0004846BDE8F04F00F03BB96042A0420AD081
:101BB0004846D9466442C8F1000883464FF0FF37D3
:101BC000DDF818A000E001275148B8F1000F11D04E
:101BD00004EBD4714FEA610B01DACBF1000B4C48F6
:101BE0000068807E88B3002F02DA306820443060BD
:101BF00000257BE000990029016821D0897E11B180
:101C00000027804615E007B05A4649465046BDE8D1
:101C1000F04F04F047B928466D1C10F089FC38B924
:101C2000D8F8000009EB0701C06E426850469047A3
:101C30007F1CA742EFDD6D1E356007B0BDE8F08F59
:101C40008A7E1AB10027804617E019E0C86E5A460E
:101C50005146036807B04846BDE8F04F184728468C
:101C60006D1C10F065FC38B9D8F8001009EB0700BE
:101C7000C96E4A68514690477F1CA742EFDDDAE7FC
:101C800000250FE008FB05B090FBF4F101EB0A0022
:101C9000009951B11E4A09EB05011268D26E5268D3
:101CA00090476D1CA542EDDDC7E7194909EB050317
:101CB0000968C96E4A6801461846F1E708FB05B095
:101CC00090FBF4F101EB0A00019030683844306079
:101CD00010F02EFC48B9009890B10D4809EB0501B1
:101CE0000068C06E4268019890476D1CA542E5DD12
:101CF0003068002F01DA20443060C01B30609CE760
:101D0000034909EB05000968C96E4A680199EBE7C8
:101D1000480100202DE9FF470F46404916468046FE
:101D200009680C981D460A7E012A1CD0A8EB060003
:101D3000791B50EA01031CD0A2F1010911F072FADB
:101D400000F58060824603F0DFFB00FB09F450469B
:101D500003F0DEFB00FB09F1002C0CDAC4F5007087
:101D6000801240420AE00090324639464046FFF772
:101D7000EBFEBDE8FF8704F50074A012002904DA29
:101D8000C1F5007189124C4202E001F500718C121C
:101D9000002804DD411C01EBD171491003E000EB88
:101DA000D0714910401E00EBD0704210002C04DDB1
:101DB000601C00EBD070401003E004EBD4704010C6
:101DC000641E04EBD47308EB0104ADF800403C182A
:101DD000ADF80240A8EB02045B10B21AADF8044063
:101DE000ADF808203144FC1AEA1AADF80C1028446A
:101DF000ADF80A20ADF80E000023ADF806401A46F3
:101E00000421684600F07AF8394640460CF0D2FDCD
:101E1000294630460CF0CEFDABE70000480100201B
:101E2000064A13681A7E012A05D0521E02EBD272AE
:101E3000521000F005B8DA6E5268104748010020D1
:101E40002DE9F05F0646884640F2C32050434FF428
:101E50007A7190FBF1F702FB02F002EBD27100EB1A
:101E6000610B254914467F1C09683244301BC96E3A
:101E70000B684146984701253AE000BF05FB05F095
:101E800004FB040159451CDDBC4219DD1A4B06EB6D
:101E9000050AA6EB05091B68AAF1010208EB04017B
:101EA000DB6E09F101001B689847134BAAF1010290
:101EB000A8EB04011B6809F10100DB6E1B68984761
:101EC000641E0D4806EB040AA6EB0409006808EB43
:101ED00005015246C06E0368484698470648A8EB7D
:101EE000050152460068C06E0368484698476D1C5D
:101EF000BD42C3DDBDE8F09F480100202DE9FF4F42
:101F000040F6FF740F46664283B09B46814600212F
:101F10000BE000BF09EB8100B0F90200A04200DA3B
:101F20000446B04200DD0646491CB942F2DB68486F
:101F30000068406900280DD0B0F906101A46A1EBE0
:101F40000B01B14200DA0E46B0F90200801AA0423D
:101F500000DD0446B5E0DFF87CA100200546CAF8A4
:101F6000000089E0781E854201DA6B1C00E0002346
:101F700009EB850C09EB8302BCF90200B2F90210EF
:101F8000A04245D1A14215D139F92330059A39F93A
:101F9000251003EB020C4E4A05981268084404EB26
:101FA0000B01D26E6045136801DA62462BE00246EF
:101FB000604628E02846A4464FF000087A1E0BE051
:101FC00008B1401E00E0781E09EB8003B3F902302F
:101FD000634504D108F101089045F1DB2346A34293
:101FE00049D0A3EB040239F92500A1EB040C059BB1
:101FF00092EA0C0209D4364A184404EB0B01126829
:10200000D26E13680246984735E00AF017FA32E0BC
:10201000A14230D001DBA04203DDA0422BDBA14274
:1020200029DCE04688420ADC0346A04223DC08465D
:10203000A14220DBB8F900C0B2F9001008E00B465D
:10204000A14218DCA04216DBB2F900C0B8F90010BA
:10205000E21AA1EB0C0151430029A0EB030202DDBF
:1020600001EB620102E0A1EB6201491CC01A91FB85
:10207000F0F06044C9E76D1CBD42FFF673AF0598F0
:10208000009004EB0B00019000208046054613E011
:102090001149B8F1000F31F915A009D0009901EBF1
:1020A0000A0208440A490968C96E0B6801999847F1
:1020B00088F0010850466D1C064909688D42E7DB2F
:1020C000641CB4427FF747AF07B0BDE8F08F000053
:1020D000480100207C070020D4AA002010B5002071
:1020E00001F0D4FF6FF07F4001F0D2FF012002F039
:1020F00007F8002002F00CF8002002F013F800208E
:1021000001F0CEFF0448006801F0CCFFBDE81040AC
:10211000002001F0D1BF0000440100202DE9FC4760
:1021200001211F2004F062FD02268DF805600124C4
:102130008DF8044000258DF806504FF46050009053
:1021400069462F4800F066F88DF805608DF8044068
:102150008DF8065041F202400090DFF8A8806946F1
:10216000404600F057F88DF805608DF804408DF872
:10217000065067030097DFF890906946484600F0E4
:1021800049F88DF805608DF804408DF80650402020
:1021900000906946404600F03DF88DF805608DF8E6
:1021A00004408DF806500C2000906946174800F056
:1021B00031F88DF805608DF804408DF80650042044
:1021C00000906946124800F025F88DF805608DF8FA
:1021D00004508DF80740802000906946404600F08A
:1021E00019F83946484600F06CF84021404600F0A6
:1021F00066F84021404600F064F8BDE8FC87000026
:102200000004024000080240000C0240001002409E
:10221000000002402DE9F041002201274FF0030C9D
:1022200007FA02F50B682B40AB422CD1066853002D
:102230000CFA03F4A64306600E79D0F800809E40A5
:1022400046EA080606600E79012E01D0022E12D150
:102250008668A64386604E79D0F808809E4046EA9C
:10226000080686604668AE43466045688E799640AB
:10227000B6B235434560C568A543C560CC799C407E
:10228000C3681C43C460521C102AC9D3BDE8F08146
:1022900010B54B07DB0E9A40C90800EB8100016ABC
:1022A0000F249C40A1430162016A1143016210BDE9
:1022B0000246002012690A4200D001207047418383
:1022C00070470183704770B50C46054600F0F0F882
:1022D000A8682168C16261680163A1684163490718
:1022E00007D5D0E90021C0E90012D0E90221C0E9F8
:1022F0000212A18981842169002903D001DC4FF0F9
:102300000001016270BD2DE9F0411E461746884666
:10231000054600F0CDF8AC686822414604F58470AB
:10232000FEF7BAF92846B8472846B04728698068BA
:102330008047A062BDE8F08110B5044600F0B8F80F
:10234000A0680E494C30114AC1650D4981650D499F
:1023500001660D4981660021C166136843660C4B16
:10236000C0E91E315168416730F8261C21F0030195
:1023700020F8261C0749416410BD0000F52501081E
:1023800061270108BD25010813210108A0010020D3
:10239000E32101080125010810B5044600F088F882
:1023A000A4680C489034102120650B4860650B48E8
:1023B000A0650B48E0650B48E0600B482061206B8E
:1023C000A06654F89029204690471020A063074843
:1023D000606410BD65DD000805F50008F123000804
:1023E00021250008CD200108892A01082C70010848
:1023F000F8B5846815460F4694F8260080074CD53A
:10240000D4F8FC30204698470646D4F800312A46D6
:10241000394620469847D4F8943005461BB100222F
:102420000121204698472069B04201DD012000E0EB
:102430000020A169B14201DA012100E00021084336
:102440006169A94201DD012100E000210843E16941
:10245000A94201DA012100E0002108430AD06068A6
:10246000401E00902368D4F8A4705B1E0022114621
:102470002046B847D4F8A8302A4631462046984727
:10248000D4F89C1020468847D4F8943005466BB1A8
:10249000012200212046984708E0D4F8A8302046C1
:1024A0009847D4F89C102046884705462846F8BD32
:1024B00070B504468068002812D14FF4B8752846DC
:1024C00000F058FB2A460021A06002F0A1FFA0689E
:1024D0000221C1840121046401620249C0F804118F
:1024E00070BD0000E924000810B590B00446202219
:1024F0000A496846FEF7D0F808492022203108A88A
:10250000FEF7CAF8606B5DF82010C4F8FC1008A94B
:1025100051F82000C4F8000110B010BDF0540108BB
:102520002DE9F84384689846154694F826000F462E
:10253000800740D5D4F8FC30204698470646D4F8AA
:1025400000312A4639462046984705462069B04260
:1025500001DD012000E00020A169B14201DA012182
:1025600000E0002108436169A94201DD012100E08A
:1025700000210843E169A94201DA012100E00021BC
:1025800008430AD06068401E00902368D4F8A47005
:102590005B1E002211462046B847D4F8A8302A46D0
:1025A000314620469847D4F8A02001B04146204645
:1025B000BDE8F0431047D4F8A830F2E72DE9F04F1A
:1025C000DFF828B191B04FF0FF35DBF80030B3F9F8
:1025D00022100691DE69B3F92490F469A189814241
:1025E00006D8E289824203D3471AD4F8008012E069
:1025F000D4E9018100296FD00A8882426CD84D88C5
:10260000854269D3801A82B2486800EB8200B0F933
:102610000070B0F90250781C5ED0307EA17C10FBB7
:1026200001FA217CCDE90801B3F92A60304603F0B4
:10263000CFFEC0B20E90DBF8000007FB0A81A37C3E
:10264000826B0127CDE90412CDE90273C069DDE98F
:102650000832C17E807ECDE900014946069803F02C
:10266000BDFA681C18D046F0020003F0B1FEDBF89A
:102670000000A37C05FB0A81826BCDE90273CDE9E2
:102680000412C069DDE90832C17E807ECDE9000117
:102690004946069803F0A2FADBF800005D46C069DF
:1026A000417E007E814214D9022E12D086F00400B1
:1026B00003F08EFE2868C069027EC37E12FB039180
:1026C000437E857E099A06984B4402FB050203F07F
:1026D00013FC0E9803F07CFEDBF80000627C418C5A
:1026E0001144418411B0BDE8F08F00004801002082
:1026F00004480068C069C06909B1027C0A60407C76
:102700007047000048010020022008807047C0691F
:1027100082898A4202D8C2898A4210D2806880B1F6
:1027200002888A420DD843888B420AD3406800EB66
:102730008100A0EB8200B0F90000002801DB01203D
:1027400070470020704700002DE9F0432F4C0346EE
:1027500087B020681946B0F92A80C069C06900F0C6
:10276000AEF900284ED041680088181A01EBC00568
:102770004046AE7803F02CFE814620686A6801234B
:10278000816BCDE90236CDE90421C169CB7E8A7E19
:10279000CDE900230B7EB0F924102A78B0F922008D
:1027A00003F01CFA2068C069477E067EB7421DD937
:1027B000C07E47434643B8F1020F17D000F08BFFAD
:1027C000804600F06BFF01F063FC21682A78CB693A
:1027D000B1F92200DB7E12FB0302B1F92410CB1900
:1027E000314403F089FB404601F052FC484603F0B7
:1027F000EFFD20686A78C369B0F922109B7E12FB56
:102800000311418407B0BDE8F083000048010020B7
:10281000F0B5244D044687B028682146B0F92A3027
:10282000C069C06900F012F91F49097809B143F085
:102830000203002834D041680088201A00EB4000D1
:1028400001EB80042078C01DC608184603F0C0FDC7
:1028500007462868A2680123816BCDE90236CDE9DD
:102860000421C169CA7E897ECDE90012B0F9241025
:1028700094F90320B0F92200114494F902206378FE
:102880001044227803F0AAF9384603F0A1FD286825
:102890002279C369B0F922109B7E12FB0311418497
:1028A00007B0F0BD480100207C01002030B5104C7D
:1028B00005460B4620682946C069C06900F0C6F885
:1028C000002813D0416800882468281A00EB4002D1
:1028D0000420E46900EB8200085CA47E10FB04F095
:1028E000002B03D011F822106143196030BD0000A5
:1028F0004801002003460D4810B500680C461946F3
:10290000C069C06900F0A2F870B141680088181A67
:1029100000EB400001EB8000D0E9001280682160EC
:10292000C4E90120002010BD012010BD4801002095
:1029300001200880704700B5C06900F087F80028C2
:1029400000D0012000BD00002DE9F35F0E460025F8
:1029500000F0C1FEDFF8A8808346D8F8000090F8A8
:102960002A00400702D500F0B6FE01E000F096FE16
:1029700001F08EFBD8F800000024C1694A7EC97EB0
:1029800012FB01FAB0F92290B0F924701FE06846FA
:1029900001F0D8FC0546D8F800002946C069C06996
:1029A00000F054F898B141680088281A00EB400004
:1029B00001EB800090F9021000790144D8F8000082
:1029C000C069807E11FB00F0002800DD0444761E03
:1029D000DDD51DB1284602F0B9FB044407EB0A031C
:1029E00009EB04025B1E4846521E394603F084FA86
:1029F000584601F04DFB034901200870BDE8FC9FDB
:102A0000480100207C0100202DE9F3410D4D0E4FBF
:102A10000E462868B0F92A40A0070AD17A680098C3
:102A2000904706E0684601F08DFC2968C96909688D
:102A30008847761EF6D50020387028684485BDE8A2
:102A4000FC810000480100207C01002006E0028893
:102A50008A4202D842888A4202D280680028F6D18F
:102A60007047000030B50F4C05460B4620682946DC
:102A7000C069C06900F023F8002811D041680088BF
:102A800024682A1A0120E46900EBC200085CA47ED5
:102A900010FB04F0002B03D011F8321061431960D1
:102AA00030BD00004801002001200880704700B5BB
:102AB000C06900F004F8002800D0012000BD06E045
:102AC00002888A4202D842888A4202D2806800285C
:102AD000F6D17047002801D009F008BD704738B51D
:102AE0000546FFF7F7FF040009D000F0C5F82A46B5
:102AF0000021009002F08CFC684600F0DFF82046D0
:102B000038BD0000024A106021F003005060704799
:102B100098A9002010B5002814D004460A48006B7C
:102B200010F8341000290DD002290BD2042101EB3A
:102B3000C4014158486809F09DFC2046BDE810409A
:102B40000FF0B2BA10BD0000DCA80020002805D0AC
:102B5000034A916B016001B14860906370470000C7
:102B6000DCA8002010B504460068FFF7D3FF002062
:102B7000206010BD2DE9F04104460DF0A5FC26486B
:102B8000E41C24F00305C16B2D1DA94200D90D469C
:102B9000846B13E054F8042CAA420ED184B121684E
:102BA00009B162684A60616809B122680A60826B93
:102BB000A2422ED1216881632BE02468002CE9D148
:102BC0008046416B80680F1857F8040C3E1A306835
:102BD00038B100200FF072FB57F8040C3E1A306831
:102BE000B8B97068A84214DB3044441B30460FF07B
:102BF0001DFBD8F80810491BC8F80810D8F81010A9
:102C00002944C8F8101070683146401B09F032FCA6
:102C100020C42046BDE8F081DCA8002010B50024C7
:102C20000DF052FC0C490F2001EBC002126C1AB1DE
:102C300001EBC000006C08E0401EF5D508E04168DB
:102C4000A14200D90C46806810B180680028F6D1F6
:102C5000A4F10C0010BD0000DCA80020002138B158
:102C60000449042202EBC000096B085841680C3982
:102C700008467047DCA8002005498A69521C8A6111
:102C8000096B01EBC0010A78521C0A7000F02EB8E3
:102C9000DCA8002010B5FFF7C1FF64220649B0F59B
:102CA000800F04D990FBF2F0C969484310BDC9698F
:102CB0004143B1FBF2F010BDDCA800200A490268D4
:102CC0000B6B52F8082C03EBC2021378022B03D3D0
:102CD0008B690BB15B1E8B611178491E117000214D
:102CE0000160084670470000DCA80020002806D0DC
:102CF0000349042202EBC000096B085808307047F2
:102D0000DCA8002038B5002430B1FFF7B5FF0090F3
:102D100004886846FFF7D2FF204638BD38B50D4617
:102D2000002448B1FFF7A8FF2946009000F016F8EC
:102D300004466846FFF7C2FF204638BD38B50D4649
:102D4000002448B1FFF798FF2946009000F018F8DA
:102D500004466846FFF7B2FF204638BD38B50D4639
:102D600001880024A94209D9406838B1FFF784FFDF
:102D7000009050F825406846FFF7A0FF204638BD78
:102D800010B50024FFF7EAFF10B1FFF775FF044606
:102D9000204610BD10B5136808290FD85C181460C0
:102DA00000222270064A04E000F00F040009145DBE
:102DB0005C540C00A1F10101C9B2F5D110BD0000B5
:102DC0005898010810B5C2B2CBB2D21A02D5C2F1DE
:102DD000000212B293B2C0F30722C1F3072403FB2F
:102DE00003F3121B01D5524212B2000C92B2A0EBB7
:102DF000114002FB023200B2002801DA404200B268
:102E000080B200FB002010BD10B50021084600F084
:102E1000BFFC40F6FF725042BDE810401346014629
:102E2000AFF300802DE9FC4107461C4615460E46CF
:102E3000042003F0CDFA80461148C068C16C006DD3
:102E40000F4406440D440444ADF80070ADF804503E
:102E5000ADF80260ADF80640684608F043FF07E0B1
:102E600023462A463146384603F046F808F0EEFE7F
:102E70000028F5D1404603F0ABFABDE8FC81000024
:102E80003C010020B0F90630B0F90420B0F902107E
:102E9000B0F90000FFF7C6BF2DE9F8431C00DDE9DB
:102EA000089816460F46054602D108F045FA044632
:102EB00000962E6843464A4621462846B0470600FB
:102EC00035D008F02DFA8146698A304607F082FD38
:102ED000304608F0A1FD484608F09EFD4FF000087E
:102EE0000CE000BFCDF8008055F81CCF00231A4637
:102EF00049462846E047E0B108F08EFD7F1E002FCE
:102F0000F0DC1D21484608F084FC601C0ED008F05F
:102F10002FFA30B1FFF7EAFE8469B44201D02000F5
:102F2000F8D1B44202D0304608F002FD3046BDE888
:102F3000F883304608F032F90020F8E72DE9F04137
:102F40001C4616460D460746022B02DB0020BDE854
:102F5000F0811C20FFF70EFE0028F8D00DB10561AE
:102F60000AE0094A52F8241009B905E011460A6836
:102F7000002AFBD109690161846186820021016018
:102F80004160C0E90217E2E76001002070B51D460C
:102F9000FFF7D4FF040001D000F00EF8E0680068ED
:102FA00020B90348006800EB85008465204670BDA9
:102FB00048010020FFF7CABD70B590B38269022AAC
:102FC00030DA1C4C54F8221019B944F822002FE0D2
:102FD00019464B68002BFBD106E0CB68C5681B681F
:102FE0002D68AB4203DD09680029F6D11AE0C1B1B2
:102FF000CB68C6681B683668B3420CD1838A012B44
:1030000005D008E01946DB681B68AB4203DB0B68A0
:10301000002BF7D129B14B6833B118604A68426080
:1030200004E0FFE7012070BD44F822004860016021
:10303000002070BD600100200FF00EBD022801DBF2
:1030400000207047054951F8200004E0C168096874
:103050000029F6D000680028F8D1704760010020F0
:103060002DE9F8431D461646884604000CD0FFF7AC
:1030700003FE0090006807686846FFF71FFE2B46B6
:10308000324641462046B847BDE8F88338B50400CB
:103090004FF000000AD02046FFF7EEFD00900068D8
:1030A00045686846FFF70AFE2046A84738BD38B590
:1030B00004004FF000000AD02046FFF7DDFD00902D
:1030C000006885686846FFF7F9FD2046A84738BDC7
:1030D00070B5044601F084FA051908E000F08CFA96
:1030E000052C01DD052000E0204601F06DFA01F01D
:1030F00077FA2C1A002CF1DC70BD00002DE9FC479A
:1031000006005BD000F0EEFA3B4C81462068B0F937
:10311000228000F00FFB216807468A8CD01B888430
:1031200041E000BF47F6FF71304601F0D7FF82460D
:103130000146304601F0A8FF2168054691F82C00B1
:1031400000F0030001283FD0022839D000204A8C2B
:10315000101A4884ADF800006A1E1044ADF804004F
:10316000888CADF80200A9F101010844ADF8060011
:103170006A465146304601F01DFC2168BDF8020048
:1031800088845146304601F0F3F8064430780A2826
:103190001CD00D281AD0BDF80000216828444884AE
:1031A000307818B1761C30780028BBD12068818C2B
:1031B00039448184818D21F003018185BDE8FC873C
:1031C00005EBD5704010C2E72846C0E7206890F8AC
:1031D0002C1001F0030101290BD0022909D0018C28
:1031E000418431780A29DBD1828C02EB0901818488
:1031F000D6E7A0F82280F4E748010020024B1B68C4
:1032000059849A84FFF77ABF4801002047F6FF737C
:10321000AFF300802DE9FC411F46904606000D46A5
:103220004FF0000416D065B1084608F0E9FB040031
:1032300007D002462946684601F0BDFF684608F0FF
:10324000DFFB3B4642462946304601F00BFC204658
:1032500008F0D6FBBDE8FC817CB506461048006846
:10326000C36C006D5D1884183188681E0844ADF881
:103270000400ADF800507188601E0844ADF80600E7
:10328000ADF80240684608F02DFD06E022462946CA
:103290003046FEF703FC08F0D9FC0028F6D17CBDCF
:1032A000480100201CB50A460146684602F064F851
:1032B0002448BDF80010006830F84C2F1144ADF8D8
:1032C0000010BDF8021082881144ADF80210BDF85C
:1032D000041002881144ADF80410BDF8061080886F
:1032E0000844ADF80600684608F0FCFC27E000BF83
:1032F000BDF900400BE000BFBDF90210204602F00E
:103300009DFDBDF90610204602F098FDA41CBDF9F4
:103310000400A042F0DABDF902400AE0BDF9000065
:10332000214602F08BFDBDF90400214602F086FD26
:10333000A41CBDF90600A042F0DA08F087FC0028C2
:10334000D6D11CBD480100202DE9F04F0C4616498E
:1033500087B00D68DDE91098E96C0F18286D8D189D
:103360000619C418ADF81070ADF81450ADF812601D
:10337000ADF8164004A808F0B5FC002811D0DFF81D
:103380002CB04FF0000ACDE90098CDE902BA2B46E7
:103390002246394630460BF0E3F908F057FC002886
:1033A000F1D107B0BDE8F08F48010020A55E00080C
:1033B0002DE9F04F164C87B02568DDE91098EC6CCC
:1033C0002718286DA5184618C418ADF81070ADF868
:1033D0001450ADF81260ADF8164004A808F082FC55
:1033E000002811D0DFF82CB04FF0010ACDE9009889
:1033F000CDE902BA23462A46314638460BF0B0F9E9
:1034000008F024FC0028F1D107B0BDE8F08F0000DF
:1034100048010020E55D00082DE9FC41104F0446FD
:103420003B68D86C4518196DADF800500E1984181A
:10343000ADF80440ADF80260ADF80660684608F0EB
:1034400051FC08E0386822463146C06E03682846C1
:10345000984708F0FBFB0028F4D1BDE8FC81000090
:10346000480100202DE9F0410B4C2568EC6C271831
:10347000286DA5184618C418002008F033FC07E092
:1034800023462A4631463846FEF756FB08F0DEFB57
:103490000028F5D1BDE8F081480100207CB50E4D33
:1034A0002A68D36C1E18106DADF804604418ADF88E
:1034B0000060ADF80640ADF80240684608F012FC26
:1034C00007E028682146C06E42683046904708F001
:1034D000BDFB0028F5D17CBD480100202DE9FC4151
:1034E0001C4C2468E66C94F818C03718206DACF1B9
:1034F000010C4518C418A7EB0C001644ADF80000E9
:1035000006EB0C00ADF80400A5EB0C00ADF80200D2
:1035100004EB0C00ADF80600684608F0E3FB15E08C
:1035200032462946384602F05DFC3246214638468E
:1035300002F058FC621E691C384602F0B3FC621EA1
:10354000691C304602F0AEFC08F080FB0028E7D191
:10355000BDE8FC81480100207CB50E4B1B68DC6C8B
:103560002618186DADF8006045188418ADF8046091
:10357000ADF80250ADF80640684608F0B3FB06E02F
:1035800022462946304602F08DFC08F05FFB0028F9
:10359000F6D17CBD4801002010B5044601F01EF8AC
:1035A00004490968002903D02046BDE810400847B7
:1035B00010BD00007405002030B59DB00D460446D6
:1035C000CDF870D06F220021684601F021FF6422FF
:1035D0002146684609F00CFA6846FCF7B7FF1C99CB
:1035E0001CAA08441C900821284601F000F86846EF
:1035F000FFF7D2FF1DB030BD10B5002400E001245C
:1036000000F004F80028FAD1204610BD064810B595
:103610000068002410B1804700B1012407F022FEA9
:1036200000B10124204610BD680100202DE9FC41B5
:103630000F4C2568EC6C2718286DA5184618C4187F
:10364000ADF80070ADF80450ADF80260ADF806407A
:10365000684608F047FB07E023462A4631463846CD
:1036600002F04AFC08F0F2FA0028F5D1BDE8FC812E
:1036700048010020B0F90630B0F90420B0F902107A
:10368000B0F90000FFF7D2BF034951F82000C1682C
:103690008A6A0821104700006001002010B502F07E
:1036A0005BFCBDE8104002F0D3BC00000249096891
:1036B000C9694A680021104748010020024A12687F
:1036C000D26952681047000048010020002801D04C
:1036D00007F016BE704710B502F046FCBDE810407A
:1036E00002F0B6BC02480068C069407E7047000026
:1036F0004801002010B906480068C0690830027E01
:103700008A70827E0A71427ECA7050F8082910477A
:103710004801002001F0AEBC01F00ABD10B504461E
:1037200001F0F8FC01462046BDE8104001F0ACBCB9
:1037300000F056BF0A490020096891F82C2002F0D9
:103740000C02042A07D0082A01D00C2A02D1C86929
:10375000007E40087047C869007E401E7047000028
:1037600048010020017EC07E11FB00F07047000080
:10377000024951F82000006900687047600100208C
:10378000024951F82000006940687047600100203C
:1037900070B50D460CF0FAFD044628460CF0FEFD0F
:1037A000204370BD124810B5016821F0010101608D
:1037B0001048012181601049016000680F4988426A
:1037C00000D0FEE701F0DCF80D492E20087000F073
:1037D0000DFF0C480CF040FE10F026FA04460021C4
:1037E000084600F071FC07F043FE204610BD0000C3
:1037F000002000E000300240C2A507F4CDB5E8B5D6
:103800003C010020A4A900201CB520B90C48006888
:10381000006E002812D0FFF72FFA00904469684626
:10382000FFF74CFA002C09D02046FFF725FA01904B
:1038300081688968884701A8FFF740FA1CBD00002D
:103840004801002001490A4600F002B801F0FFFFDC
:103850002DE9F04387B015460C465FEA000842D0D8
:10386000002000F01DFC814620480068066E40469E
:10387000FFF702FA00900068806900F0F5FB074648
:1038800040F6FF70001904D10098B0F90440B0F977
:1038900006500098611E0289ADF804401144ADF84D
:1038A00008104189681E0844ADF80650ADF80A00BA
:1038B00007F01CFB6846FFF701FA01A808F012FAAE
:1038C00006E02A462146404600F0F8FA08F0BEF924
:1038D0000028F6D1384600F0C7FB304600F048F922
:1038E000484600F0DDFB07B0BDE8F083480100204A
:1038F0002DE9FE4F834619488A46194900680C9EF7
:103900009846407C9146002751F82040E1680968BC
:10391000042903D02468002CF8D100E014B9FFF783
:103920008DFB04460121E068C26A204690470500ED
:1039300011D02469A0688047401C02D1094C46F090
:1039400001060096CDE9015443464A465146584681
:1039500000F09AF907463846BDE8FE8F480100207E
:10396000600100207087010838B5040018D00D48A8
:103970000068006EA04201D100F06CFB2046FFF70A
:103980007BF90090406908B100F0FBFD00980068E9
:10399000FFF710FB6846FFF791F92046FFF7BAF8EA
:1039A00038BD0000480100202DE9FF4F83B0454C91
:1039B000DDF840B098468A4607002BD002A901A83E
:1039C000FFF7AAFEB7F90060002E00DA0026B7F96B
:1039D0000250002D00DA00252068A146407C02F04C
:1039E000F7FA01990144491EB7F904000CF073FE7F
:1039F0000446D9F80000407C02F0F0FA0299014434
:103A0000491EB7F906000CF066FEA71B7F1C441B7D
:103A1000641C0BE0206800263546407C02F0D8FA92
:103A200007462068407C02F0D9FA0446B8F1000F3E
:103A300001D1C4F10008002F01DD002C03DC0020BF
:103A400007B0BDE8F08F43463A4629463046CDF8E8
:103A500000B0FFF74DFF5FEA000909D000F054F80D
:103A60008046484600F084F80027DFF85CB01FE08D
:103A70005146059888470120E2E7E11B414502DAFB
:103A8000484600F05FF83FB1EA193146484600F079
:103A900099F84846FFF7B8FE514605988847DBF885
:103AA000001009B1002088474846FFF7CBFE474485
:103AB000A742E2DB4846FFF757FF002000F058F826
:103AC000BDE7000048010020B805002038B50024FB
:103AD00060B1FFF7D1F80090006800698068804706
:103AE00002F026FE04466846FFF7E8F8204638BD97
:103AF00038B5FFF7C1F800F1180400906846FFF7E9
:103B0000DDF8204638BD000038B5002418B9074854
:103B10000068006E38B1FFF7AFF80090B0F90A40C6
:103B20006846FFF7CBF8204638BD0000480100206A
:103B300010B509F041F8002803D0BDE8104000F0AE
:103B40006DB810BD38B50C4620B908480068006E45
:103B500000280AD0FFF790F80090B0F90A10A142AF
:103B600000DD44816846FFF7A9F838BD4801002010
:103B7000F8B5134E05003068046E0CD00CB100F09F
:103B800069FA07F0CDFA2846FFF776F80090316819
:103B90000A6E1AB106E000F05DFA0EE0D1E90223E8
:103BA000C1E919230D660068FFF706FA6846FFF7BA
:103BB00085F802F055FC02F0EBFB2046F8BD000052
:103BC000480100207CB515460C4620B91248006813
:103BD000006E00281FD0FFF74FF82DB20090C5806F
:103BE00024B2848002F0D4FB0098406980B1FFF7D2
:103BF00043F8009A0190B2F908108180B2F90A20C6
:103C0000C28011B10AB10480458001A8FFF756F8BF
:103C10006846FFF753F87CBD4801002001490A4679
:103C200000F002B801F0FFFF7FB515460C46060014
:103C300028D0FFF721F840F6FF710190091903D150
:103C4000B0F90440B0F906500289611E1144ADF884
:103C50000840ADF80C104189681E0844ADF80E000C
:103C6000ADF80A5001A8FFF729F802A808F03AF8C1
:103C700006E02A462146304600F008F907F0E6FF44
:103C80000028F6D17FBD00002DE9FF4FDFF8E0B03E
:103C900083B01C46DBF80010DDE910609246002777
:103CA0004B7C3A461299FFF749F905005DD0286927
:103CB0008068804702F03CFD81460AFB09F0C01D88
:103CC0004FEAD008FEF7E6FFF10705D1C11700EB78
:103CD0009170801000EB4000002C06DC1838B0FB1F
:103CE000F8F06442A04200DC0446F00707D10090DF
:103CF000DDE903012346524600F0BAFB0746002CDB
:103D000003DC2846FFF756F92FE004FB08F01830D3
:103D1000F10702D0FEF7DEFE01E0FEF7E0FE06004E
:103D20001CD0FEF7A9FF01900560039981800499DA
:103D3000C180A0F808A04481C0F80C80C0E90497B5
:103D400001A8FEF7BBFF1298AE602861DBF8000007
:103D5000407CA861304607B0BDE8F08F2846FFF7E9
:103D600029F917B13846FEF7D5FE0020F3E7000029
:103D7000480100202DE9F74F92B090461298FEF7C7
:103D80007BFF0B90B0F908100691B0F90A100D9165
:103D900000680069D0F804B00BA8FEF78FFF384C1C
:103DA000384D2068407C55F82000C1688A6A082197
:103DB00090478146182801D34FF020092068407CA5
:103DC00055F820000069079003C80C902E488142E6
:103DD00001D0012000E000201090002000F014FC31
:103DE000002849D10026DDE91207B2460FAB069C38
:103DF0004546761C0193FFF77BFE014604FB0AF063
:103E000001EB8002234629463846CDF800B000F089
:103E1000D9FE050030D01098D0B1DDE906134A462E
:103E2000284600F0F2FC98B9DDE906702C46D0F87F
:103E300010C0BCF1000F05D0294604233A460846BD
:103E4000E04705E00C992068884701C47F1EF9D13E
:103E50000020CDE90305059001200090CDE901097E
:103E60004146034608F10108069A139801F0B6FE90
:103E70000D98401E0D90B6D115B0BDE8F08F000032
:103E800048010020600100206F600008F8B5154669
:103E90000E460746FEF7F0FE009000681621C06847
:103EA000426A0020904704466846FEF707FF002C50
:103EB00003D02A4631463846A047F8BDF8B5154626
:103EC0000E460746FEF7D8FE009044696846FEF7A6
:103ED000F5FE3846FFF7FAFD0346082800DD2CB151
:103EE0002A46314638460EF0E5FDF8BD2A463146F1
:103EF00038460EF077FFF8BD10B5002821D009B381
:103F00000AB3B1F90040B2F900309C4200DA23460E
:103F10000380B1F90240B2F902309C4200DA234634
:103F20004380B1F90440B2F904309C4200DD2346DD
:103F30008380B1F90610B2F90620914200DC1146E7
:103F4000C18010BD11460A6802604968416010BD19
:103F500000280BD003880B44038083881944818098
:103F6000418811444180C1881144C18070470000DC
:103F700070B5094C0020D4E900218A420AD0D2E968
:103F8000005610460CF020FA20603146284607F013
:103F900075FB012070BD0000780500202DE9FC4173
:103FA000154DDDE908742D68B5F90860864200DD1D
:103FB0003046B5F90C60964200DA3246824219DB8F
:103FC000B5F90A608E4200DD3146B5F90E509D42CA
:103FD00000DA2B468B420DDB00E02C46E5682D68AD
:103FE00025B1042D02D02568002DF6D1CDE900744D
:103FF00002F0B6F8BDE8FC8148010020B0F90220CB
:10400000B1F906309A4213DCB1F90220B0F906305A
:104010009A420DDCB0F90020B1F904309A4207DC75
:10402000B1F90010B0F90400814201DC01207047B1
:10403000002070470146024878220068FCF72CBB3C
:1040400048010020024978220968FCF725BB0000DE
:104050004801002010B502F04FF902F001FABDE866
:10406000104006F043BF000070B504460548022C1E
:104070000068457C02D24474FFF7ECFF02480460FC
:10408000284670BD480100201805002002F056B9EE
:1040900002F08CB901498860704700003C010020A3
:1040A00002F096B903490968CA6900B1C8611046AF
:1040B0007047000048010020024909688A7E88761E
:1040C0001046704748010020094A30B41080094A60
:1040D0001180094A1268537C084A52F82330DA6882
:1040E000146A0A46A446014630BC184660470000E0
:1040F000780100207A0100204801002060010020A2
:10410000024909680A7E0876104670474801002077
:1041100003490968B1F92C208885104670470000D2
:104120004801002003490968B1F92A204885104652
:10413000704700004801002002480068002800D0B5
:10414000004770479805002002498A6802B98860D4
:10415000FFF7F2BF780500202DE9FC41074698469D
:1041600015460E461C20FEF7BAFC040028D019495B
:10417000174808602046FEF77FFD00900760C0E901
:104180000456A0F80C806846FEF798FD20460CF017
:104190002DFA114DA86840B90120A86005F10C0165
:1041A0000E480860084601F0F5F82046FEF764FD69
:1041B0000190296839B181602C6001A8FEF77EFD6D
:1041C0002046BDE8FC8100212C608160F5E70000FD
:1041D000FD4100086801002084050020490801080D
:1041E00010B5040009D00EF03BF820460EF00CFC90
:1041F0002046BDE81040FEF78DBC10BD2DE9F04112
:10420000184C88B00025676825E000BFFFF790FADA
:1042100006466068FEF730FD01904169891B002960
:1042200015DC616802960491016903914668666035
:10423000D0F8008001A8FEF741FD02A8414688475A
:1042400066B160680125B84205D1002506E001A8E5
:10425000FEF734FD02E060680028D7D108B0284698
:10426000BDE8F0818405002038B50C4660B1FEF74A
:1042700003FD00908089204201D0012400E0002449
:104280006846FEF71BFD00E00124204638BD38B526
:10429000040012D0FEF7F0FC0090FFF749FA014647
:1042A00000988269114441616846FEF707FD204687
:1042B0000EF0AAFB20460CF099F938BD38B50C4633
:1042C000002806D0FEF7D8FC009084616846FEF70F
:1042D000F5FC38BD38B5054600202860064804685E
:1042E00044B12046FEF7C8FC00900069286068468B
:1042F000FEF7E4FC204638BD8405002038B50400F4
:104300004FF000000D46086011D02046FEF7B4FCC7
:104310000090846844B16846FEF7D0FC2046FEF762
:10432000ABFC0090006928606846FEF7C7FC204699
:1043300038BD00000249014808607047AC540108CC
:104340004C0100202DE9F041084E04460568306814
:1043500001682846884707463068416828468847EC
:10436000284420603846BDE8F08100004C01002060
:104370002DE9F0410C4606460025064F05E0386859
:1043800041683046884706440544641EF7D22846F3
:10439000BDE8F0814C0100202DE9F0411E46069C4D
:1043A0001746884605463A46A8687F1C3346D0F82B
:1043B00004C041462846E047641EF4D1BDE8F081C0
:1043C00070B5B0F90040091BB0F904408C422CDDF7
:1043D00000F11404B0F902500069521B02FB0040C6
:1043E000CA1800EBE104521ED010B0EBE10501F059
:1043F00007034FF0FF0102F0070221FA03F0C2F1B8
:10440000070201FA02F1CEB221780FD001436D1EEE
:1044100004F8011B002D05DDFF2229462046FCF78C
:104420006DF92C4420783043207070BD304001433A
:10443000217070BD10B5B0F90030B0F90240C91A52
:1044400000F114030069121B02FB003000EBE100D5
:1044500001F0070302788021D9400A43027010BDA1
:10446000B0F90610026951431430FCF74FB900004F
:104470002DE9F843804602F10F000011470003FBCD
:1044800007F01C46154689461430FEF728FB060047
:1044900013D0FEF7F1FB0090A0F80080A0F8029086
:1044A0008580C48006498160012181810761684659
:1044B000FEF704FC3046BDE8F8830020FBE700006F
:1044C000A096010870B5B0F90660B0F904400B6819
:1044D00000F11405964220DD0069A34202FB005062
:1044E00000EBE30219DAA4F101044FEAE400A0EBC7
:1044F000E30512F8010B03F0070400FA04F0C4B25C
:1045000008E055B112F8014B03F10803A5F10105CC
:1045100023F00703002CF4D008E0002070BD00BF9A
:104520004FEA44604FEA106403F101032006F7D517
:10453000FF2C0AD0184605E04FEA44644FEA1464A1
:1045400000F101006606F7D400E0D81DC4436407FB
:1045500006D007E012F8014BFF2C0FD100F1080044
:104560006D1EF7D5A0EB030000F101000B6070BDDC
:104570004FEA44624FEA126400F101002206F7D4C8
:10458000F0E738B50546FEF777FB00908189491EB4
:104590000CB284816846FEF791FB002C02D12846BC
:1045A000FEF7B8FA38BD000010B54FF4F0410448EA
:1045B000FEF7A8FABDE810400248FFF76BBD000007
:1045C00094140020C86F010803490A6810440A685F
:1045D000821A002AFBDC7047800000207047704779
:1045E000014800687047000080000020704730B428
:1045F000136820241C7030245C7078249C70DB1CB1
:10460000136030BCFEF7C6BB0EB508B102AA00E0CD
:104610000022002301A9684600F0E4FC0EBD000062
:10462000074910B5CC6818B10120C860801E03E0AE
:104630000020C8606FF07F4001F0BAFA204610BD3C
:10464000800700202DE9F041984616460C4688B3B5
:10465000FFF764F8074608F00300012825D0022878
:1046600017D0B4F9005000BFFFF73CF8014608F03E
:104670000C0004282BD00C281DD0B4F90200358082
:104680007080EA19521E0844B280401EF080BDE8D6
:10469000F081B4F90400B4F90010401AC01B401CAA
:1046A00000EBD07001EB6005DEE7B4F90400C51B38
:1046B0006D1CD9E710E0B4F90600B4F90220801AA5
:1046C000401A401C00EBD07002EB6000D7E7B4F951
:1046D0000600401A401CD2E72068306060687060B5
:1046E000D5E710B5082A0EDC0346012A1AD0022AA3
:1046F00058D0042A78D010F8042B03F8012B491E57
:10470000F9D1012010BD102A0ADC0222022AF8D1B8
:10471000024630F8043B22F8023B491EF9D1F0E78B
:10472000002010BD10F8042BD207120E491E34D001
:1047300010F8044B491E04F0010442EA84122CD004
:1047400010F8044B491E04F0010442EA441224D03C
:1047500010F8044B491E04F0010442EA04121CD074
:1047600010F8044B491E04F0010442EAC40214D0BC
:1047700010F8044B491E04F0010442EA84020CD0F4
:1047800010F8044B491E04F0010442EA440204D02C
:1047900010F8044B04F00104224303F8012B002914
:1047A000C0D1AEE710F8042B9207120E491E15D0A7
:1047B00010F8044B491E04F0030442EA04120DD021
:1047C00010F8044B491E04F0030442EA840205D0A9
:1047D00010F8044B04F003042243491E03F8012B94
:1047E0000029DFD18DE7FFE710F8042B1207120E26
:1047F000491E05D010F8044B04F00F042243491E53
:1048000003F8012B0029EFD17BE72DE9F0411E6869
:104810000D460446082A09DC0746012A21D0022A4F
:1048200062D0042A7CD0082A1AD195E0102A03DC31
:1048300002200228F8D102E00020BDE8F081D3F880
:1048400010C02746BCF1000F04D00A4621460223BF
:1048500008468AE001CCB04727F8020B6D1EF9D15B
:104860008BE001CCB047C0074FEA10686D1E36D010
:1048700001CCB04748EA801000F0FF086D1E2ED032
:1048800001CCB04748EA401000F0FF086D1E26D06A
:1048900001CCB04748EA001000F0FF086D1E1ED0A2
:1048A00001CCB04748EAC00000F0FF086D1E16D0EA
:1048B00001CCB04748EA800000F0FF086D1E0ED022
:1048C00001CCB04748EA400000F0FF086D1E06D05A
:1048D00001CCB04740EA080000F0FF086D1E07F861
:1048E000018B002DBDD148E001CCB04780074FEAD5
:1048F00010686D1E18D001CCB04748EA001000F0D7
:10490000FF086D1E10D001CCB04748EA800000F0CF
:10491000FF086D1E08D001CCB04740EA080000E057
:1049200007E000F0FF086D1E07F8018B002DDBD1BA
:1049300023E001CCB04700074FEA10686D1E06D097
:1049400001CCB04740EA080000F0FF086D1E07F8F0
:10495000018B002DEDD110E0D3F810C0BCF1000F99
:1049600005D00A46014601233846E04705E001CC60
:10497000B04707F8010B6D1EF9D101205DE700007B
:104980000A4810B5816900290ED101218161FFF724
:104990000BFE01F077FD054905481C310860BDE8B4
:1049A0001040084600F0F6BC10BD00003C0100209D
:1049B000E90701087CB5064628480D46006868B13D
:1049C000002007F08FF906E06A462946304608F0D5
:1049D000B5F907F03BF90028F6D17CBD10680090CE
:1049E0001F4C506801902268BDF8000032F84C1F3F
:1049F0000844ADF80000BDF8020091880844ADF805
:104A00000200BDF8040011880844ADF80400BDF8A8
:104A1000060091880844ADF80600684607F062F980
:104A20000EE000BF2068BDF800106A464184BDF862
:104A3000021081842946304608F080F907F006F913
:104A40000028EFD1206830F8221F428D891A01809A
:104A50004188C28D891A41807CBD0000740100200C
:104A6000480100202DE9FF4F85B09A4690460D463B
:104A7000FEF738FE4FF00009DDF814B006464C464C
:104A800025B1286800906868019002E06846FEF74A
:104A90001DFE18F00C0F02D05546002713E0BDF99B
:104AA00002402DE07F1C2946059800F017FB0146C7
:104AB0006D1A0598FFF75CFC05990844059005A858
:104AC00000F050FB08B9002DECD108F00C000428D0
:104AD00004D0082802D00C2812D105E0BDF9060048
:104AE00007FB1604641C0BE0BDF90600BDF90210BB
:104AF000401A07FB1600401C00EBD07001EB60046D
:104B00005546CDF814B043E02946059800F0E6FA82
:104B100007460146ED1B059800F0B6FA18F00301B0
:104B20000ED0012939D002290DD1BDF90410BDF9EB
:104B30000020891A091A01EBD17102EB610101E031
:104B4000BDF900108946174A401E4844126839468C
:104B5000A2F822909484ADF80C00A019401EADF884
:104B60000890ADF80E00ADF80A4002AA0598FFF7CC
:104B700021FF39460598FFF7FBFB0599084405908E
:104B8000FEF7B0FD044405A800F0ECFA002801D1BE
:104B9000002DB9D109B0BDE8F08FBDF90410091A94
:104BA000491CCFE74801002049B1002802DAA0EBF8
:104BB000610001E000EB610090FBF1F07047002024
:104BC000704700002DE9FF4F00208BB004460146DE
:104BD000009019981D461646016007AB002203A9F4
:104BE00002A800F0FFF918B100200FB0BDE8F08F67
:104BF0000798854200DD05465C4F0A955C49386898
:104C0000407C51F82010049109690691FEF73CFDA3
:104C100005903868407CFEF7B3FD564981468842CE
:104C200004D05549894501D0012000E000200990B9
:104C300001CE1899884782465FEA106B71D00098C0
:104C400070BB0B9800EB040848480068B0F90800F6
:104C5000404503DDA0EB0807804600E000270299ED
:104C6000049801EB840101EB8701CDE90010DDE937
:104C70000A010A180C9B0892521E19464046FFF77B
:104C80008DF901200090059818280ADA0298DDE9CC
:104C9000052300EB840000EB8700E91B00F0D0F84F
:104CA00010E0099870B1029800EB840000EB8707D0
:104CB0000898A0EB080849463868884701C7B8F14A
:104CC0000108F8D12D48C06960B3DDE9020700EBA7
:104CD000840007EB8402CDE90202284C361F2B46E4
:104CE000E46930460299A047FF203168B0EB116FAC
:104CF00002D10299096804E0029A1268B0EB126FBF
:104D000001D1039A11600299361D091D0291039980
:104D1000091D03916D1EE8D11999012003970860C0
:104D20001DE01EE0FFE7BBF1FF0F0ED00298CBF1B4
:104D3000FF0250F82410504600F0C4FA039941F8DD
:104D4000240019990120086005E00298039950F8A1
:104D5000240041F82400641C6D1E7FF469AF0398A1
:104D600043E7039941F824A0EBE700004801002045
:104D7000600100206F6000086D600008540700208B
:104D80002DE9F0479A46164B86B01B68DDE90F8780
:104D9000DC6CDDF838902618186D65188418AAF1B7
:104DA0000100ADF810502044ADF80C60ADF81200D1
:104DB000ADF80E4003A806F095FF0BE0CDF800908B
:104DC000CDE9018753462246294630460AF08FF83E
:104DD00006F03CFF0028F1D106B0BDE8F0870000E6
:104DE000480100202DE9F04F144C87B02568DDE91B
:104DF0001298EC6CDDE910BA2718286DA518461832
:104E0000C418ADF81070ADF81450ADF81260ADF8DC
:104E1000164004A806F066FF0BE0CDE90298CDE944
:104E200000BA23462A46314638460AF0E3F806F02F
:104E30000DFF0028F1D107B0BDE8F08F4801002038
:104E40002DE9F05F0C1E16DD5E68014600EB84055F
:104E5000082A12DC611E012A28D0022A48D0042A1E
:104E60006AD0082A07D1071917F8010DB04745F88D
:104E7000040D641EF8D1BDE8F09F102AFBDC02226D
:104E8000022AF8D15F693FB12246BC46BDE8F04F27
:104E900002235DF804EB604701EB440737F8020D8D
:104EA000B04745F8040D641EF8D1E4E700EBE100DB
:104EB0002D1F10F801A9814601F00707802020FA74
:104EC00007F800BF0AEA0800C7F10701C840B04769
:104ED00045F804093FB17F1E4FEA4860000E804646
:104EE000641EEFD1C7E7072719F801A90120F6E7EB
:104EF00000EBA1002D1F01F0030710F801A9814666
:104F00007900C02020FA01F84FF0060B0AEA0800E9
:104F1000ABEB4701C840B04745F804093FB17F1EDD
:104F20004FEA8860000E8046641EEFD1A3E7032796
:104F300019F801A93846F6E700EB610001272D1F9B
:104F4000A74310F801A98146B900F02020FA01F822
:104F50004FF0040B0AEA0800ABEB8701C840B047EA
:104F600045F804093FB17F1E4FEA0870000E8046E5
:104F7000641EEFD17FE7012719F801A90F20F6E79A
:104F80002DE9F0471646164A9A4686B01268DDE9C2
:104F90000F87D36CDDF838901D18106DADF80C50EC
:104FA0004418A819401EADF81000A019401EADF815
:104FB0001200ADF80E4003A806F094FE0BE0CDF809
:104FC0000090CDE9018753463246214628460AF033
:104FD000BDFB06F03BFE0028F1D106B0BDE8F0872E
:104FE000480100202DE9F047204C06461F46A069E5
:104FF00090468946002540B90120A06104F12001B6
:105000001B480860084600F0C5F9606910B900F057
:10501000E2FF606107B138604EB1A06830B96069E5
:105020008000FDF7A7FDA06000B901253060B9F14F
:10503000000F0AD0E06830B960698000FDF79AFD82
:10504000E06000B90125C9F80000B8F1000F0AD0EE
:10505000206930B960698000FDF78CFD206100B9DE
:105060000125C8F800002846BDE8F0875407002055
:105070006D08010803480068C069017EC07E11FB0D
:1050800000F070474801002073B5124A01A900984A
:105090001268904700240090C8B10F4900250968A4
:1050A000C969496959B10A684AB1019990477CBDFB
:1050B0006846FFF747F90546FEF7F8FA04440198F9
:1050C000401E0190F4D5284600F040F804442046E4
:1050D0007CBD0000700500204801002073B50D461E
:1050E0000098002490B10A490968C969496959B111
:1050F0004A684AB1294690477CBD6846FFF722F9C5
:1051000020B10A2802D0641CAC42F6DB20467CBDEC
:105110004801002031B50024009808B905E0641C5E
:105120006846FFF70FF90028F9D1204638BD000086
:10513000044AB2F9002002600348B0F90000086098
:1051400070470000780100207A01002038B5002463
:1051500069460094FEF7B2FA0099814200DD0C1A0C
:10516000204638BD016811F8012B12B10A2A02D07D
:1051700002E001207047016000207047B0F9003064
:10518000B1F90020934200DA0280B0F90230B1F99F
:105190000220934200DA4280B0F90430B1F90420D1
:1051A000934200DD8280B0F90620B1F906108A42F0
:1051B00000DDC180704770B5B1F90040B2F9003030
:1051C0009C4200DD23460380B1F90250B2F902404F
:1051D000A54200DD2C464480B1F90460B2F90450C8
:1051E000AE4200DA35468580B1F90610B2F90620E4
:1051F000914200DB1146C1809D4201DBA14201DAF0
:10520000002070BD012070BD014602480068407C4E
:1052100000F002B848010020F8B501260F46054607
:1052200002284BDA264C5FB3012F02D0022F45D162
:1052300016E054F8250088B92846FDF7FFFE0090D7
:10524000B8B3C0680D21426A68469047020035D065
:1052500039460098904754F825000026401C2BE062
:10526000FDF7ECFE009020B3C0680D21426A68464D
:105270009047020022D039460098904700261DE052
:1052800054F8250001280FD12846FDF7D7FE0090DD
:1052900050B1C0680D21426A68469047020003D0B1
:1052A000394600989047002654F8250010B1012196
:1052B00001E003E00021401A44F825003046F8BD23
:1052C0006805002070B5FF23B3EB116F2CD0C3B27B
:1052D00013FB02F500F47F4400F47F03544353436F
:1052E000000E10FB02F6C2F1FF00CAB212FB005220
:1052F00001F47F4505FB004401F47F0505FB003305
:10530000090E11FB0065C2F307204FF47F024FF432
:105310007F4102EA132201EA14214FF07F43084340
:1053200003EA05431043184370BD2DE9F04F1546BD
:10533000DDE90CB90C4606464FF0000818E00B9F5B
:105340004FF0FF0A01CE08CCAAEB106202FB09F273
:10535000B2FBFAF1CAB21946FFF7B4FF20F07F4062
:1053600001C57F1EEED1099808F1010804EB800405
:10537000D845E4D3BDE8F08F0B88134403808B88B5
:105380009B1A83804B8813444380C988891AC18043
:105390007047000002494A69426048617047000056
:1053A0003C0100202DE9F8430768064688460025A1
:1053B000384600F08FF840B3404600F09BF8441C9C
:1053C0003846FDF74BFC84420CD1F4B13846FDF76A
:1053D00053FC224641460090FBF7D7F86846FDF79C
:1053E0006DFC11E02046FDF775FB04000DD0FDF7C4
:1053F00043FC41460090FBF785F86846FDF75EFCEC
:105400003046FDF7AFFB346001252846BDE8F88340
:1054100010B502E000F8011B521E0AB18307F9D152
:10542000930818D001EB014402F0030204EB0424BA
:1054300005E0046044608460C46010301B1F042BCE
:10544000F7DA01E010C05B1E002BFBD103E000BFC8
:1054500000F8011B521E002AFAD110BD10B58307B7
:1054600002D520F8021B521E530810D001EB014454
:10547000042B08DB046044608460C46010301B1F90
:10548000042BF7DA01E010C05B1E002BFBD1D20722
:1054900000D0018010BD024600204FF0804143182B
:1054A000934201D8D21A581840088908F7D170479A
:1054B00000B907A021B906A102E03AB1401C491C7D
:1054C00002780B789A42F8D001207047002070478C
:1054D0000000000038B50D46012448B1FDF7CCFBB3
:1054E00029460090FFF7E4FF04466846FDF7E6FB17
:1054F000204638BD4FF0FF3120B110F8012B491C78
:10550000002AFAD10846704700F58060AFF30080AA
:1055100010B50022C0F30B00B0F5006F02DDA0F55E
:1055200000600122B0F5806F01DDC0F500608311DD
:105530000B4C00F03F00C0F1400134F81300484329
:10554000402906D004EB4303C1F140015B8803FB13
:10555000010020308009002A00D0404210BD000028
:10556000487301084069806880B27047D0F8CC0069
:105570000068C0F341407047084490F883087047C2
:1055800000EB8100D0F83808704710B504460022BF
:105590000023C4F8F43704EB8200C0F8FC37C0F8ED
:1055A0003838A01880F87438521CD2B20F2AF2D3BF
:1055B0000820A4F89A08204604F0E8F9204603F0F1
:1055C00071FF204603F092FE0121204604F040FACC
:1055D000204603F0DFFE204603F09EFF002010BDB2
:1055E000D0F8F4077047D0F8F807704710B504F00A
:1055F000B6F9002010BD0022431883F8832800EB81
:105600004113C3F8A82804F0E3B810B5416806298F
:105610000DD004DC022910D0052913D104E00C2997
:105620000ED012290ED105E007F0A6FC0AE008F022
:10563000C9FD07E009F0FAFA04E007F0B9FB01E060
:1056400009F0F0F9002010BD044A03491160044933
:105650000A69086110467047AC030020B4060020B8
:10566000BC060020FEE707B592B26846FBF70EFDC8
:105670000EBD10B5FBF750FDF320FBF795FC38206D
:10568000FBF7EEFCC0B210BD08B50020009003E0AF
:105690009DF80000401C00909DF80000C828F7D33A
:1056A00008BD00007CB5002000900190144C4FF420
:1056B0000075A6151CE09DF80000400000902946EA
:1056C0002046FCF7FEFDFFF7DFFF31462046FCF7E2
:1056D000EFFD18B19DF80000401C009029462046BF
:1056E000FCF7EDFDFFF7D0FF9DF80400401C019092
:1056F0009DF804000828DED39DF800007CBD000062
:105700000008024071B581B0002000901A4C4FF49F
:10571000807665152AE09DF80400000604D5314620
:105720002046FCF7CEFD03E031462046FCF7C7FDDE
:10573000FFF7AAFF29462046FCF7C3FDFFF7A4FFA9
:1057400029462046FCF7BBFD9DF80010072903D130
:1057500031462046FCF7B5FD9DF804004200019259
:10576000FFF792FF9DF80020521C00929DF8000068
:105770000828D0D37CBD00000008024070B50E4D53
:105780004FF4007421462846FCF79BFD6610314615
:105790002846FCF796FDFFF777FF31462846FCF7D1
:1057A0008EFDFFF771FF21462846FCF788FDBDE816
:1057B0007040FFF769BF00000008024070B5094D56
:1057C0004FF4807421462846FCF779FD6100284695
:1057D000FCF777FDFFF758FF21462846BDE87040EB
:1057E000FCF76FBD00080240F8B5114C4FF480750E
:1057F00029462046FCF765FDFFF746FF6615314652
:105800002046FCF75EFDFFF73FFF29462046FCF7E8
:105810004FFD10B10120009001E0002000903146C2
:105820002046FCF74CFDFFF72FFF9DF80000F8BD68
:10583000000802402DE9F04137287DD172B6424C74
:105840006568424E0021304601F0EDFD304601F022
:10585000F7FD00220121304601F0C8FE6603002159
:10586000304601F0E0FD304601F0EAFD0022012162
:10587000304601F0BBFE364E0021304601F0D3FD2C
:10588000304601F0DDFD00220121304601F0AEFE80
:10589000304E0021304601F0C6FD304601F0D0FD0B
:1058A00000220121304601F0A1FE2B4F384601F0C5
:1058B00047FF40F2255600223146384601F0E0FF0E
:1058C0000021384601F030FF244F384601F038FF00
:1058D00000223146384601F0D3FF0021384601F05E
:1058E00023FF01F0BBF9002001F0E2F9FBF74AFBCE
:1058F0004FF0E0200026066101F0E0F900213814A5
:1059000001F05AFA002001F09FFA72B6432000F02D
:10591000ECFF2A2000F0E9FF4D2000F0E6FF4C20CC
:1059200000F0E3FF72B6206880F3098886F31488DC
:10593000206880F3088800E003E0AC46BDE8F04151
:105940006047BDE8F081000000000208000001404F
:1059500000080040001000400010014000480040D6
:10596000F8B5002400946649086802077DD520F048
:105970000800086000F0CCF800900099614E4439AE
:10598000614D4FF47A7034296FD2DFE801F0B45ED4
:10599000687D6E6E6E6EAF761A826E6E6E6EAA63E4
:1059A00023316E6E6E6EA54F2C366E6E6E6E9754F2
:1059B0008D406E6E6E6E92596E456E6E6E6E6F8815
:1059C0003B4A70804FF47A60B080AC81BDE8F8400B
:1059D000FBF71AB84FF4D2717180B080AC81BDE88A
:1059E000F840FBF711B8AC81BDE8F840FBF70CB804
:1059F000AC81BDE8F840FBF707B8AC81BDE8F840E2
:105A0000FBF702B8AC81BDE8F840FAF7FDBFAC8106
:105A1000BDE8F840FAF7F8BFAC81BDE8F840FAF706
:105A2000F3BFAC81BDE8F840FAF7EEBFAC81BDE84A
:105A3000F840FAF7E9BFAC81BDE8F840FAF7E4BFF7
:105A4000AC81BDE8F840FAF7DFBFAC81BDE8F840B3
:105A5000FAF7DABFAC81BDE8F840FAF7D5BFAC8100
:105A6000FAF7D2FF3089401C3081F8BDAC81FAF7DB
:105A7000CBFF3089401E3081F8BDFBF715FFAC81AC
:105A8000BDE8F840FAF7C0BFAC81BDE8F840FAF7CE
:105A9000BBBFAC81FAF7B8FF01202872F8BDAC811A
:105AA000BDE8F840FAF7B0BFAC81BDE8F840FAF7BE
:105AB000ABBFAC81BDE8F840FAF7A6BF1348006859
:105AC00005F06CFBFBF774F9012000F0E1FEAC81FE
:105AD000BDE8F840FAF798BFAC81BDE8F840FAF7A6
